:100000000C94FC000C9419010C9419010C94190126
:100010000C9419010C9419010C9419010C941901F8
:100020000C9419010C946D060C9419010C9419018F
:100030000C9419010C9419010C9419010C941901D8
:100040000C9419010C9419010C9419010C941901C8
:100050000C9419010C9419010C9419010C941901B8
:100060000C9419010C94190107634236B79BD8A769
:100070001A39685618AEBAAB558C1D3CB7CC5763CD
:10008000BD6DEDFD753EF6177231BF000000803F7B
:1000900008000000BE922449123EABAAAA2ABECD97
:1000A000CCCC4C3E00000080BEABAAAAAA3E000009
:1000B0000000BF000000803F000000000008417801
:1000C000D3BB4387D1133D190E3CC3BD4282AD2B38
:1000D0003E68EC8276BED98FE1A93E4C80EFFFBE30
:1000E00001C4FF7F3F00000000006E616E00696E7A
:1000F000660000407A10F35A00A0724E18090010F2
:10010000A5D4E80000E87648170000E40B5402008C
:1001100000CA9A3B000000E1F505000080969800B7
:10012000000040420F000000A086010000001027E0
:1001300000000000E8030000000064000000000070
:100140000A00000000000100000000002C76D888A2
:10015000DC674F0823DFC1DFAE59E1B1B796E5E3B5
:10016000E453C63AE651997696E8E6C28426EB89CE
:100170008C9B62ED407C6FFCEFBC9C9F40F2BAA56B
:100180006FA5F490055A2AF75C936B6CF9676DC103
:100190001BFCE0E40D47FEF520E6B500D0ED902E07
:1001A0000300943577050080841E080000204E0A65
:1001B000000000C80C333333330F986E12831141A3
:1001C000EF8D2114893BE65516CFFEE6DB18D1846E
:1001D0004B381BF77C1D901DA4BBE4242032847295
:1001E0005E228100C9F124ECA1E53D276364696EBC
:1001F0006F70737578585B0011241FBECFEFD8E085
:10020000DEBFCDBF12E0A0E0B1E0E4ECFFE202C04F
:1002100005900D92A23EB107D9F723E0A2EEB2E01D
:1002200001C01D92AA32B207E1F70E94AB090C94FB
:10023000E0170C9400006091FE027091FF02809123
:100240000003909101030E943A0E20E836EE45EC3F
:1002500057E40E949F0D21E03EED42E45EE30E94E0
:10026000290F9B01AC0160E070E080E89FE30E94F1
:100270003A0D20E03AE24DE257E40E94C60E609348
:10028000020370930303809304039093050308957E
:10029000CF93DF930E9419058EEE0E94490584EFEB
:1002A0000E945F058EE20E945F050E94260587E29C
:1002B00093E20197F1F700C000000E9419058EEE4D
:1002C0000E94490586EF0E945F0587EF0E945F0547
:1002D0000E9438058FEE0E94490581E090E00E945F
:1002E0002A05682F70E0D62FCC2780E090E00E948E
:1002F0002A05C82B0E942605BE01882777FD809518
:10030000982FDF91CF9108958F929F92AF92BF92D5
:10031000CF92DF92EF92FF920E9448019B01AC01C5
:100320008091100390911103281B390B4109510949
:10033000A0910E03B0910F030E94F3100E943A0E99
:1003400020E030E040E058E30E94C60E0E94070E15
:100350006B017C0160911C0370911D03882777FD60
:100360008095982F0E943A0E20E030E040E055E45E
:100370000E94C60E4B015C0180911E0390911F03E9
:10038000BC01882777FD8095982F6C0D7D1D8E1DF3
:100390009F1D0E943A0E9B01AC01C501B4010E9451
:1003A0009F0D0E94070E6C0D7D1D8E1D9F1D60937D
:1003B0001603709317038093180390931903685FD3
:1003C0007F4F8F4F9F4F0E943A0E20E030E040E871
:1003D0005DE30E94C60E0E94070E6093FA027093BE
:1003E000FB028093FC029093FD02FF90EF90DF9060
:1003F000CF90BF90AF909F908F9008951F93CF9311
:10040000DF930E9419058EEE0E94490584EF0E9439
:100410005F058091F0029091F10282309105C9F060
:100420008330910501F1019751F084E30E945F054B
:100430000E94260587E293E20197F1F71DC084E749
:100440000E945F050E94260587E99AE30197F1F76C
:1004500013C084EB0E945F050E94260587E799E69A
:100460000197F1F709C084EF0E945F050E942605FD
:1004700087E397EC0197F1F700C000008FEC97E05D
:100480000197F1F700C000000E9419058EEE0E944E
:10049000490586EF0E945F0587EF0E945F050E9475
:1004A00038058FEE0E94490581E090E00E942A0500
:1004B000C82F80E090E00E942A05182F0E94260590
:1004C0008FEC97E00197F1F700C000000E9419053A
:1004D0008EEE0E94490588EF0E945F050E94380554
:1004E0008FEE0E94490580E090E00E942A05D82FF7
:1004F0000E942605812F90E0A0E0B0E06627782FCB
:10050000892F9A2F8C2B6D2B28E030E04091F00240
:100510005091F102241B350B04C096958795779571
:1005200067952A95D2F7DF91CF911F9108953F9259
:100530004F925F926F927F928F929F92AF92BF92F3
:10054000CF92DF92EF92FF920F931F93CF93DF939F
:10055000CDB7DEB728970FB6F894DEBF0FBECDBF7C
:100560000E94FE016D837E838F839887809016039F
:1005700090901703A0901803B090190380EA881A8E
:100580008FE0980AA108B108A5019401C501B40142
:100590000E948E102B013C01FCE0759467945794E7
:1005A0004794FA95D1F70091060310910703309014
:1005B000F002A0910A03B0910B030E94FE106B01A0
:1005C0007C01ADE0F594E794D794C794AA95D1F750
:1005D000A0911203B0911303A30192010E94FE1097
:1005E000BB2797FDB095AB2FC80ED91EEA1EFB1E88
:1005F00092E0C90ED11CE11CF11C82E0F594E79455
:10060000D794C7948A95D1F7A0E8DA0EE11CF11CC3
:10061000A0910C03B0910D03A70196010E94F31065
:10062000DC01CB012FE0B695A795979587952A9584
:10063000D1F789839A83AB83BC836801EE24D7FC0E
:10064000E094FE2C32E0CC0CDD1CEE1CFF1C3A9535
:10065000D1F7A0911403B0911503A30192010E9458
:10066000FE102B013C014BE075946794579447941E
:100670004A95D1F7A0910803B0910903A50194010F
:100680000E94FE105BE095958795779567955A9542
:10069000D1F7460E571E681E791EC40CD51CE61CE9
:1006A000F71C032C04C0CC0CDD1CEE1CFF1C0A94B0
:1006B000D2F792E0C90ED11CE11CF11CC701B601B2
:1006C00024E030E040E050E00E94D4108D819E8113
:1006D000AF81B885821B930BA40BB50B8D839E83D2
:1006E000AF83B88760E573EC80E090E004C0969536
:1006F0008795779567953A94D2F72D813E814F8102
:1007000058850E948E1097FD0DC0660F771F881FB9
:10071000991F29813A814B815C810E94B210490165
:100720005A010CC029813A814B815C810E94B21030
:1007300049015A01880C991CAA1CBB1C9927B7FCBB
:100740009A958B2D7A2D692D9B01AC010E948E10FC
:100750009B01AC01AEEDBBE00E94F3106C01FF24E5
:10076000D7FCF094EF2CA3E4B3EEA50194010E9412
:100770000111BB2797FDB095AB2FC80ED91EEA1EFD
:10078000FB1E9FECC90E9EE0D91EE11CF11C64E02B
:10079000F594E794D794C7946A95D1F7C80CD91CFF
:1007A000EA1CFB1CC092FE02D092FF02E092000302
:1007B000F092010328960FB6F894DEBF0FBECDBFAE
:1007C000DF91CF911F910F91FF90EF90DF90CF902D
:1007D000BF90AF909F908F907F906F905F904F9061
:1007E0003F900895DF92EF92FF920F931F93CF9364
:1007F000DF93CDB7DEB766970FB6F894DEBF0FBEB6
:10080000CDBF04E111E0CE0101967C010E941905E3
:100810008EEE0E944905F801D08081810E5F1F4F46
:100820000E945F058D2D0E945F050E9438058FEEA6
:100830000E94490581E090E00E942A05D82E80E0C0
:1008400090E00E942A052D2D30E0322F2227282B00
:10085000F701219331937F010E9426058FEC97E0E9
:100860000197F1F700C0000091E00A32190771F614
:1008700089819A8190930703809306038B819C81E1
:1008800090930903809308038D819E8190930B03BD
:1008900080930A038F81988590930D0380930C03B6
:1008A00089859A8590930F0380930E038B859C8591
:1008B00090931103809310038D859E85909313036D
:1008C000809312038F859889909315038093140366
:1008D00089899A8990931B0380931A038B899C8939
:1008E00090931D0380931C038D899E8990931F0311
:1008F00080931E0366960FB6F894DEBF0FBECDBF81
:10090000DF91CF911F910F91FF90EF90DF900895AD
:10091000CF93DF93EC010E9413050E94F203D09362
:10092000F102C093F002DF91CF9108950E948401FB
:100930000E9497020C941B016091FA027091FB02D5
:100940008091FC029091FD020E943A0E20E030E07E
:1009500040E251E40E949F0D089580E895E20E94D4
:10096000FE082FEF83E294EF215080409040E1F7A2
:1009700000C000008AE391E00E94DC138EE391E066
:100980000E94450981E090E008950F931F93CF9353
:10099000DF9300D0CDB7DEB7182F092F1F9281E06B
:1009A0008F9321E431E03F932F9369837A830E94F0
:1009B000C8138EE391E00E9445091F921F9220E523
:1009C00031E03F932F930E94C8138EE391E00E9481
:1009D00045091F921F9220E631E03F932F930E941A
:1009E000C8138EE391E00E9445097A817F93698163
:1009F0006F930F931F938FE691E09F938F930E94C5
:100A0000C8138EE391E00E9445090FB6F894DEBF4B
:100A10000FBECDBF81E090E00F900F90DF91CF919E
:100A20001F910F9108951092B90082E38093B8004E
:100A3000089584EA8093BC008091BC0087FFFCCFBE
:100A40008091B900887F8830D9F7089584E9809330
:100A5000BC000895892B11F484E801C084EC8093D4
:100A6000BC008091BC0087FFFCCF8091BB00089543
:100A700084EA8093BC008091BC0087FFFCCF80910A
:100A8000B900887F8031D9F7089584E891E00C940B
:100A9000DC138093BB0084E88093BC008091BC0091
:100AA00087FFFCCF8091B900887F883139F0809131
:100AB000B900887F803411F00C9445050895809327
:100AC000BB0084E88093BC008091BC0087FFFCCF12
:100AD0008091B900887F883211F00C944505089503
:100AE0002D9A82E08A95F1F700C02D980895CF9352
:100AF000DF931F92CDB7DEB7662311F0419A01C094
:100B000041984098249A239A229A219A29982A98BF
:100B10002B982C9887FD299A86FD2A9A85FD2B9A79
:100B200084FD2C9A89830E94700529982A982B9815
:100B30002C98898183FD299A82FD2A9A81FD2B9A1E
:100B400080FD2C9A0E9470052C9A2B9A2A9A299A39
:100B50000F90DF91CF9108954198409A249823985F
:100B6000229821982D9A82E08A95F1F700C01C996D
:100B700002C080E001C080E11B9980621A99806404
:100B8000199980682D9892E09A95F1F700C02D9AF6
:100B900092E09A95F1F700C01C9981601B998260E0
:100BA0001A998460199988602D9808950E94AC055F
:100BB00087FDFCCF8AE08A95F1F700C00C94AC0564
:100BC000CF93C82F0E94D60560E08C2FCF910C9454
:100BD0007705CF93C82F0E94D60561E08C2FCF9167
:100BE0000C947705611102C0805801C080540C94A8
:100BF000E0050E94D60590E0089581E00C94E005A0
:100C000082E00C94E005CF93C82F0E94D605CA302D
:100C100049F4803410F480E401C080E08058CF9122
:100C20000C94E00561E08C2FCF910C947705CF9365
:100C3000DF93EC018991882319F00E940306FACF13
:100C4000DF91CF910895CF93DF93FC018491EF0161
:100C50002196882321F00E940306FE01F7CFDF9141
:100C6000CF910895CF93C82F399A389A259A249A0C
:100C7000239A229A219A8FEF9CE70197F1F700C0FF
:100C800000002B9A2C9A0E9470058FE097E2019742
:100C9000F1F700C000000E9470059AEA9A95F1F7FA
:100CA00000C00E9470058AEA8A95F1F700C02C986E
:100CB0000E9470059AEA9A95F1F700C088E20E94B6
:100CC000E00588E00E94E0050E94FD0586E00E94A4
:100CD000E0058C2FCF910C94E0051F920F920FB678
:100CE0000F9211242F933F934F935F936F937F93B2
:100CF0008F939F93AF93BF93EF93FF930E945208FC
:100D00001092B200FF91EF91BF91AF919F918F919F
:100D10007F916F915F914F913F912F910F900FBEF7
:100D20000F901F901895FF920F931F93CF93DF930F
:100D3000CDB7DEB72F970FB6F894DEBF0FBECDBF8D
:100D4000F98C88E290E00E9460118C018FE0EBE268
:100D5000F1E0DE01119601900D928A95E1F7F11014
:100D600002C0FF24F394AE01465E5F4F6F89788D19
:100D7000C8010E944414FA946F2D80E00E94F2058D
:100D8000CE0101960E9417066F2D80E00E94F205A9
:100D9000C8010E941706C8010E94F8112F960FB6CD
:100DA000F894DEBF0FBECDBFDF91CF911F910F91A1
:100DB000FF9008950F931F93CF93DF930E949604A3
:100DC0000E94FD050E94E508182F092F0E94EA08DD
:100DD000EC010E949C040F931F93DF93CF931F920B
:100DE0002FED2F939F938F937F936F9381E08F933A
:100DF00081EC91E09F938F930E9493060E94F908E3
:100E0000182F092F0E94F408EC010E94EF080F939D
:100E10001F93DF93CF939F938F9382E08F9384ED03
:100E200091E09F938F930E9493062FEF89E698E1BC
:100E3000215080409040E1F700C000008DB79EB780
:100E400046960FB6F8949EBF0FBE8DBFDF91CF912F
:100E50001F910F910895FF920F931F93CF93DF93EC
:100E60008CE00E9432060E94FD0583EE91E00E9414
:100E7000170681EF91E09F938F93C2E0CF9388EFA5
:100E800091E09F938F930E9493060E94AD040F9070
:100E90000F900F900F900F90892B19F082E092E045
:100EA00002C080E192E09F938F93CF9387E092E01E
:100EB0009F938F930E9493060F900F900F900F9027
:100EC0000F90C7E1D2E0DF93CF9382E0F82EFF923C
:100ED0000EE112E01F930F930E94930680E090E0D2
:100EE0000E94880482E092E09F938F93FF921F9369
:100EF0000F930E949306DF93CF93FF9289E292E0D3
:100F00009F938F930E9493060E942508789482E015
:100F100092E09F938F9382E08F9389E292E09F9378
:100F20008F930E9493060E94FD0581E08F9383E3D7
:100F300092E09F938F930E9493068DB79EB747963A
:100F40000FB6F8949EBF0FBE8DBFDF91CF911F915A
:100F50000F91FF9008951F9280E58F9383E492E0B4
:100F60009F938F938FE492E09F938F9383E592E01A
:100F70009F938F930E94C8138EE391E00E944509CE
:100F80001F928CE28F938EE692E09F938F930E9444
:100F9000C8138EE391E00E9445098EE792E09F938B
:100FA0008F938AE992E09F938F930E94C8138DB725
:100FB0009EB740960FB6F8949EBF0FBE8DBF8EEAC7
:100FC00092E00C944509CF93DF9386E190E00E9474
:100FD0006011EC0165EB72E080EC92E00E94C504C8
:100FE0000E94AB0768EC72E00E947C13BC01CE014A
:100FF0000E946A1324EE32E03F932F9326EE32E0F4
:101000003F932F9328EE32E03F932F932EEE32E062
:101010003F932F932CEE32E03F932F932AEE32E052
:101020003F932F932BEC32E03F932F93DF93CF939B
:101030000E942B148DB79EB740960FB6F8949EBFB2
:101040000FBE8DBFDF91CF9108950E94E307E6EBBD
:10105000F0E0808180628083E1EBF0E08081856058
:1010600080831092B200B89AE0E7F0E0808181605E
:10107000808308959C0164E670E00E949E10892B95
:1010800049F0C90160E971E00E949E1041E0892B9E
:1010900039F405C02370332741E0232B09F440E0E5
:1010A000842F08958091EE029091EF020196909323
:1010B000EF028093EE02CC9769F48091EC0290915C
:1010C000ED0201969093ED028093EC021092EF02F4
:1010D0001092EE028091EC029091ED02CC9769F4AF
:1010E0008091EA029091EB0201969093EB0280933B
:1010F000EA021092ED021092EC028091EA029091C5
:10110000EB02489769F48091E8029091E902019618
:101110009093E9028093E8021092EB021092EA02A7
:101120008091E8029091E9022091E6023091E70275
:101130008032910539F42F5F3F4F3093E7022093BF
:10114000E6021FC08F31910541F4A9014D7F443063
:10115000510589F34930510571F322303105D1F43D
:101160008D319105A9F48091E4029091E5020E94ED
:101170003A0881110FC083E090E09093E7028093DA
:10118000E60281E090E09093E9028093E80202C0D9
:101190004E9789F38091E6029091E7020D9779F4DA
:1011A0008091E4029091E50201969093E50280938C
:1011B000E40281E090E09093E7028093E6020895D4
:1011C0008091EE029091EF0208958091EC0290914F
:1011D000ED0208958091EA029091EB0208958091CA
:1011E000E8029091E90208958091E6029091E70269
:1011F00008958091E4029091E50208959C014427AE
:1012000037FD4095542F60E271EA87E090E00E943C
:10121000B210215031093093C5002093C400E1EC95
:10122000F0E0808188618083E2ECF0E0808186607C
:1012300080830895811104C08DE00E941A098AE01C
:101240009091C00095FFFCCF8093C60008958091D7
:10125000C00087FFFCCF8091C60008950F931F93B5
:10126000CF93DF938C01EC01CE01801B910B2A30D0
:1012700039F02D3029F00E942709282F8993F4CFC7
:10128000DF91CF911F910F9108957F928F929F923E
:10129000AF92BF92CF92DF92EF92FF920F931F9384
:1012A000CF93DF93CDB7DEB7C052D2400FB6F894DC
:1012B000DEBF0FBECDBF4C019E012F5F3F4F7901B6
:1012C00080E092E0F9019C01119221503040E1F759
:1012D0008E010F5F1D4F80E2F80111928A95E9F7A8
:1012E000C12CD12C80E2782EC8010E942E095C010D
:1012F0000097D9F0B401C8010E947C13892BA9F48E
:101300001F930F93C7018C0D9D1D9F938F930E9478
:101310000914F801272D11922A95E9F7CA0CDB1C54
:101320000F900F900F900F90DFCFC701C05EDD4F81
:101330000FB6F894DEBF0FBECDBFDF91CF911F91E6
:101340000F91FF90EF90DF90CF90BF90AF909F9064
:101350008F907F90089580E091E090932703809391
:1013600026030E942B070E94DA062FEF84E39CE0FD
:10137000215080409040E1F700C00000F4CFA3E18D
:10138000B0E0E5ECF9E00C9406117C011B016A0168
:10139000FC0117821682838181FF66C3BE016F5FE5
:1013A0007F4F4B01F7019381F10193FD859193FFED
:1013B00081911F01882309F453C3853239F493FDC9
:1013C000859193FF81911F01853239F4B70190E037
:1013D0000E94961356016501E5CF10E0512C20E0E4
:1013E0002032A0F48B3269F030F4803259F083322D
:1013F00069F420612CC08D3239F0803339F42160DA
:1014000026C02260246023C0286021C027FD27C099
:1014100030ED380F3A3078F426FF06C0FAE01F9F0F
:10142000300D1124132F13C06AE0569E300D112485
:10143000532E20620CC08E3221F426FD11C320648D
:1014400006C08C3611F4206802C0883641F4F101E0
:1014500093FD859193FF81911F018111C1CF9BEB7A
:10146000980F933018F42061805E06C09BE9980FB6
:10147000933008F0AAC12F7E26FF16E02F73722E3C
:10148000853621F4F22FF0647F2E08C0863621F4D1
:10149000622F6068762E02C01111115077FE07C0CE
:1014A0001C3348F444244394410E27E00BC0183009
:1014B00030F4212F06C027E04CE3442E03C027E080
:1014C00017E0412C560174E0A70EB11CF6016081B3
:1014D000718182819381042DA4010E9487126C0185
:1014E000098100FF02C003FF06C071FC07C072FC47
:1014F00008C0612C08C03DE2632E05C02BE2622EBD
:1015000002C090E2692E802F8C7099F1662011F054
:1015100084E001C083E0851510F0512C0BC0581AEF
:1015200073FC08C0B70180E290E00E9496135A94C1
:10153000C9F7F3CF662029F0B701862D90E00E940D
:10154000961303FD03C00EEE10E002C00AEE10E099
:10155000F72DF0717F2EF8018491882309F476C26B
:1015600071108052B70190E00E9496130F5F1F4FD9
:10157000F2CF77FE0FC04C0C04FF04C08A81813388
:1015800009F44A94141474F5F8E0F41578F588E039
:10159000482E2CC076FC2AC0812F90E08C159D052A
:1015A0009CF06CEFC6166FEFD60674F0772D70685E
:1015B000772E0AC0E2E0F0E0EC0FFD1FE10FF11D15
:1015C0008081803319F411501111F4CF77FE0EC0D1
:1015D00044244394410E812F90E0C816D9062CF480
:1015E0001C1904C04424439401C010E077FE07C0D6
:1015F0001C141D043CF496012F5F3F4F05C025E0ED
:1016000030E002C021E030E0662011F02F5F3F4F54
:10161000112331F0412F50E04F5F5F4F240F351FF2
:10162000452D50E02417350714F4521A01C0512CEF
:10163000872D897049F4552039F0B70180E290E098
:101640000E9496135A94F7CF662029F0B701862D91
:1016500090E00E94961373FC09C0552039F0B70141
:1016600080E390E00E9496135A94F7CF77FE5FC014
:101670009C2D8D2DD7FE02C090E080E0692E782E43
:1016800040E050E0C601841991099D878C8796013E
:1016900026193709280D391D812F90E0EE27FF27E5
:1016A000E81BF90BFF87EE87FFEF6F167F0669F4E3
:1016B000B7018EE290E02B8B3A8B488B598B0E94BE
:1016C0009613598948893A892B89C614D70454F04E
:1016D0006C857D85661577052CF4F901E40FF51FFF
:1016E000818101C080E371E0671A71084F5F5F4F2D
:1016F000EE85FF856E167F066CF0B70190E02B8BB0
:101700003A8B488B598B0E9496132B893A894889CA
:101710005989CACF6C147D0439F49A81963318F430
:10172000953311F404FF81E3B70190E04BC08A8147
:10173000813309F00F7EB70190E00E9496131111DA
:1017400005C074FE18C085E490E017C0B7018EE2B2
:1017500090E00E94961382E066246394680EF40180
:10176000E80FF11D8081B70190E00E94961311509F
:1017700041F3862DF1CF85E690E0B7010E949613E4
:10178000D7FC05C0C114D10439F404FF05C0D194BD
:10179000C194D1088DE201C08BE2B70190E00E94B4
:1017A000961380E36AE0C616D1042CF08F5FFAE04E
:1017B000CF1AD108F7CFB70190E00E949613B70176
:1017C000C601C0960E94961341C1833631F083371B
:1017D00079F0833509F058C021C0560172E0A70E98
:1017E000B11CF6018081898301E010E0640114C01E
:1017F0005601F2E0AF0EB11CF601C080D18026FF89
:1018000003C0612F70E002C06FEF7FEFC6012B8B2A
:101810000E9471138C012B892F7715C05601F2E0BD
:10182000AF0EB11CF601C080D18026FF03C0612F2E
:1018300070E002C06FEF7FEFC6012B8B0E945F1339
:101840008C012B892068722E23FD1AC0852D90E013
:1018500008171907A8F4B70180E290E00E949613D8
:101860005A94F4CFF60177FC859177FE81916F0150
:10187000B70190E00E94961351105A94015011093B
:101880000115110579F7E2C0843611F0893651F55A
:10189000560127FF09C0F4E0AF0EB11CF6016081CC
:1018A0007181828193810AC0F2E0AF0EB11CF60112
:1018B00060817181882777FD8095982F022F0F76A0
:1018C00097FF08C090958095709561957F4F8F4FD9
:1018D0009F4F00682AE030E0A4010E946014C82EE7
:1018E000C8183EC0022F853721F40F7E2AE030E071
:1018F0001DC0097F8F3691F018F4883559F0B0C0BB
:10190000803719F0883711F0ABC0006104FF09C0BF
:10191000046007C024FF08C0066006C028E030E06D
:1019200005C020E130E002C020E132E0560107FFAF
:1019300009C0F4E0AF0EB11CF601608171818281B3
:10194000938108C0F2E0AF0EB11CF6016081718195
:1019500080E090E0A4010E946014C82EC8180F77A0
:1019600006FF0BC0202F2E7FC11650F404FF0AC0C3
:1019700002FD08C0202F2E7E05C0DC2C202F03C0C6
:10198000DC2C01C0D12E24FF0DC0FE01EC0DF11D99
:101990008081803311F4297E09C022FF06C0D394D0
:1019A000D39404C0822F867809F0D39423FD13C00A
:1019B00020FF06C01C2DD51418F4150D1D19D52CAB
:1019C000D51468F4B70180E290E02B8B0E94961347
:1019D000D3942B89F5CFD51410F45D1801C0512C88
:1019E00024FF12C0B70180E390E02B8B0E94961376
:1019F0002B8922FF17C021FF03C088E590E002C0B9
:101A000088E790E0B7010CC0822F867859F021FD5D
:101A100002C080E201C08BE227FD8DE2B70190E0B9
:101A20000E949613C11638F4B70180E390E00E943B
:101A300096131150F7CFCA94F401EC0DF11D80817B
:101A4000B70190E00E949613C110F5CF552009F41C
:101A5000C2CCB70180E290E00E9496135A94F6CF70
:101A6000F7018681978102C08FEF9FEF6396E2E1D5
:101A70000C9422115058BB27AA270ED04DC13ED13D
:101A800030F043D120F031F49F3F11F41EF433C104
:101A90000EF4E095E7FB29C1E92F4FD180F3BA1787
:101AA000620773078407950718F071F49EF567C104
:101AB0000EF4E0950B2EBA2FA02D0B01B901900169
:101AC0000C01CA01A0011124FF27591B99F0593FAD
:101AD00050F4503E68F11A16F040A22F232F342FF5
:101AE0004427585FF3CF469537952795A795F04043
:101AF0005395C9F77EF41F16BA0B620B730B840B58
:101B0000BAF09150A1F0FF0FBB1F661F771F881F0F
:101B1000C2F70EC0BA0F621F731F841F48F4879567
:101B200077956795B795F7959E3F08F0B3CF939556
:101B3000880F08F09927EE0F9795879508950CD098
:101B4000EBC0E3D040F0DAD030F021F45F3F19F081
:101B5000CCC0511115C1CFC0F0D098F39923C9F36F
:101B60005523B1F3951B550BBB27AA2762177307A3
:101B7000840738F09F5F5F4F220F331F441FAA1F57
:101B8000A9F333D00E2E3AF0E0E830D09150504017
:101B9000E695001CCAF729D0FE2F27D0660F771FC5
:101BA000881FBB1F261737074807AB07B0E809F0A7
:101BB000BB0B802DBF01FF2793585F4F2AF09E3F3C
:101BC000510568F092C0DCC05F3FECF3983EDCF357
:101BD000869577956795B795F7959F5FC9F7880FB5
:101BE000911D9695879597F90895E1E0660F771F07
:101BF000881FBB1F621773078407BA0720F0621B98
:101C0000730B840BBA0BEE1F88F7E095089504D090
:101C10006894B111B5C0089598D088F09F5790F09E
:101C2000B92F9927B751A0F0D1F0660F771F881F01
:101C3000991F1AF0BA95C9F712C0B13081F09FD040
:101C4000B1E008959CC0672F782F8827B85F39F0DE
:101C5000B93FCCF3869577956795B395D9F73EF460
:101C600090958095709561957F4F8F4F9F4F089508
:101C7000E89409C097FB3EF4909580957095619526
:101C80007F4F8F4F9F4F9923A9F0F92F96E9BB27DC
:101C90009395F695879577956795B795F111F8CF58
:101CA000FAF4BB0F11F460FF1BC06F5F7F4F8F4FC3
:101CB0009F4F16C0882311F096E911C0772321F0B9
:101CC0009EE8872F762F05C0662371F096E8862F51
:101CD00070E060E02AF09A95660F771F881FDAF7A8
:101CE000880F9695879597F9089597F99F6780E8EB
:101CF00070E060E008959FEF80EC089500240A945E
:101D00001616170618060906089500240A941216D6
:101D10001306140605060895092E0394000C11F409
:101D2000882352F0BB0F40F4BF2B11F460FF04C0B6
:101D30006F5F7F4F8F4F9F4F089557FD9058440F0F
:101D4000551F59F05F3F71F04795880F97FB991F1A
:101D500061F09F3F79F087950895121613061406D7
:101D6000551FF2CF4695F1DF08C016161706180664
:101D7000991FF1CF86957105610508940895E8943F
:101D8000BB2766277727CB0197F908950BD0C4CFDF
:101D9000B5DF28F0BADF18F0952309F0A6CFABCF56
:101DA0001124EECFCADFA0F3959FD1F3950F50E039
:101DB000551F629FF001729FBB27F00DB11D639FFD
:101DC000AA27F00DB11DAA1F649F6627B00DA11DA3
:101DD000661F829F2227B00DA11D621F739FB00D49
:101DE000A11D621F839FA00D611D221F749F3327B9
:101DF000A00D611D231F849F600D211D822F762F52
:101E00006A2F11249F5750408AF0E1F088234AF04E
:101E1000EE0FFF1FBB1F661F771F881F915050409A
:101E2000A9F79E3F510570F060CFAACF5F3FECF35A
:101E3000983EDCF3869577956795B795F795E79586
:101E40009F5FC1F7FE2B880F911D9695879597F997
:101E50000895FA01EE0FFF1F30962105310599F123
:101E60006115710561F48038BFE39B0749F16894FF
:101E70009038810561F08038BFEF9B0741F09923CE
:101E800042F5FF3FE1053105210511F1E894089481
:101E9000E795D901AA2329F4AB2FBE2FF85FD0F321
:101EA00010C0FF5F70F4A695E0F7F73950F019F015
:101EB000FF3A38F49F779F930CD00F9007FC90580F
:101EC00008953EF018CF60E070E080E89FE3089549
:101ED0004FE79F775F934F933F932F939ED02F9120
:101EE0003F914F915F9152DF05C019F40EF0FDCE86
:101EF00046CF01CF2ADFC8F39638C0F707F80F9214
:101F0000E8942BE33AEA48EB5FE74EDF0F920F923B
:101F10000F924DB75EB70F92C0D0E8E6F0E016D052
:101F20004F915F91EF91FF91E595EE1FFF1F49F0F3
:101F3000FE57E0684427EE0F441FFA95E1F74195FC
:101F4000550B32D00F9007FE26C00895DF93CF9334
:101F50001F930F93FF92EF92DF927B018C016894A5
:101F600005C0DA2EEF011EDFFE01E894A591259150
:101F7000359145915591AEF3EF018EDDFE0197014C
:101F8000A801DA9479F7DF90EF90FF900F911F91FD
:101F9000CF91DF9108959B01AC0160E070E080E893
:101FA0009FE3CDCDA2CEACC0D0DEE8F39923D9F328
:101FB000940F511DBBF39150504094F059F0882379
:101FC00032F0660F771F881F91505040C1F79E3F37
:101FD000510544F7880F911D9695879597F90895B7
:101FE0005F3FACF0983E9CF0BB2786957795679550
:101FF000B79508F4B1609395C1F7BB0F58F711F48A
:1020000060FFE8CF6F5F7F4F8F4F9F4FE3CFB8CE1A
:102010000EF076C070CE689468CE97DEC8F3992330
:10202000D1F3C6F3DF93CF931F930F93FF92C92F82
:10203000DD2788232AF02197660F771F881FDAF79C
:1020400020E030E040E85FEB9FE3883920F0803EFD
:1020500030F021968F770FDDE0E9F0E003C00BDD73
:10206000EDEBF0E073DF8B01BE01EC01FB2E6F574F
:1020700071097595771F880B990BFCDD28E132E714
:1020800041E35FE38FDEAF2D9801AE01FF900F912A
:102090001F91CF91DF9100DD3FCEFA01DC01AA0F45
:1020A000BB1F9B01AC01BF5728F4222733274427CD
:1020B00050781FC0B75188F4AB2F00244695379550
:1020C0002795011CA395D2F3002069F0220F331F3E
:1020D000441FB395DAF30DD0CDCC61307105A0E883
:1020E0008A07B94630F49B01AC0166277727882719
:1020F0009078309621F02083318342835383089572
:102100009F3F31F0915020F4879577956795B7956B
:10211000880F911D9695879597F90895DB018F9308
:102120009F930E94F310BF91AF91A29F800D911DCC
:10213000A39F900DB29F900D1124089597FB072E39
:1021400016F4009407D077FD09D00E943D1107FCDA
:1021500005D03EF4909581959F4F089570956195B7
:102160007F4F0895A1E21A2EAA1BBB1BFD010DC0D3
:10217000AA1FBB1FEE1FFF1FA217B307E407F50737
:1021800020F0A21BB30BE40BF50B661F771F881F13
:10219000991F1A9469F760957095809590959B01A9
:1021A000AC01BD01CF010895052E97FB1EF40094EC
:1021B0000E94EB1057FD07D00E94B21007FC03D01D
:1021C0004EF40C94EB1050954095309521953F4F6F
:1021D0004F4F5F4F089590958095709561957F4F13
:1021E0008F4F9F4F08950E945111A59F900DB49F4E
:1021F000900DA49F800D911D11240895B7FF0C949C
:10220000F3100E94F310821B930B08952F923F92BC
:102210004F925F926F927F928F929F92AF92BF92F6
:10222000CF92DF92EF92FF920F931F93CF93DF93A2
:10223000CDB7DEB7CA1BDB0B0FB6F894DEBF0FBEFF
:10224000CDBF09942A88398848885F846E847D844C
:102250008C849B84AA84B984C884DF80EE80FD804E
:102260000C811B81AA81B981CE0FD11D0FB6F894C4
:10227000DEBF0FBECDBFED010895AA1BBB1B51E110
:1022800007C0AA1FBB1FA617B70710F0A61BB70BE6
:10229000881F991F5A95A9F780959095BC01CD018B
:1022A0000895A29FB001B39FC001A39F700D811D2F
:1022B0001124911DB29F700D811D1124911D08954F
:1022C000CF93DF938230910510F482E090E0E091AB
:1022D0002203F091230320E030E0A0E0B0E030974B
:1022E00039F14081518148175907B8F0481759070B
:1022F00071F482819381109729F013969C938E93A9
:1023000012972CC0909323038093220327C021159A
:10231000310531F04217530718F0A901DB0101C064
:10232000EF019A01BD01DF010280F381E02DD7CFDB
:1023300021153105F9F0281B390B2430310580F4C3
:102340008A819B816115710521F0FB019383828352
:1023500004C09093230380932203FE01329644C06D
:10236000FE01E20FF31F81939193225031093983CB
:1023700028833AC02091200330912103232B41F47C
:1023800020911001309111013093210320932003FB
:1023900020910E0130910F012115310541F42DB727
:1023A0003EB74091120150911301241B350BE0916F
:1023B0002003F0912103E217F307A0F42E1B3F0B3B
:1023C0002817390778F0AC014E5F5F4F24173507A7
:1023D00048F04E0F5F1F50932103409320038193D9
:1023E000919302C0E0E0F0E0CF01DF91CF9108953A
:1023F000CF93DF93009709F487C0FC0132971382D3
:102400001282C0912203D0912303209781F420816E
:102410003181280F391F8091200390912103821769
:10242000930779F5F0932103E09320036DC0DE015B
:1024300020E030E0AE17BF0750F412964D915C914A
:1024400013979D014115510509F1DA01F3CFB383CB
:10245000A28340815181840F951F8A179B0771F4D5
:102460008D919C911197840F951F02969183808383
:1024700012968D919C911397938382832115310538
:1024800029F4F0932303E09322033EC0D90113966D
:10249000FC93EE9312974D915D91A40FB51FEA172F
:1024A000FB0779F480819181840F951F0296D901F1
:1024B00011969C938E938281938113969C938E9315
:1024C0001297E0E0F0E08A819B81009719F0FE010D
:1024D000EC01F9CFCE01029628813981820F931F3A
:1024E00020912003309121032817390769F4309790
:1024F00029F4109223031092220302C01382128245
:10250000D0932103C0932003DF91CF910895283009
:1025100008F027E03327DA01990F311D87FD91601C
:1025200000966105710539F432602E5F3D9330E30A
:102530002A95E1F708959F3F30F0803871056105D5
:1025400009F03C5F3C5F3D93913008F08068911D3D
:10255000DF93CF931F930F93FF92EF92192F987FE2
:102560009695E92F96959695E90FFF27E45BFE4F28
:1025700099273327EE24FF24A701E701059008944B
:10258000079428F4360FE71EF81E491F511D660FE9
:10259000771F881F991F0694A1F70590079428F4C8
:1025A000E70EF81E491F561FC11D770F881F991F80
:1025B000661F0694A1F70590079428F4F80E491FAA
:1025C000561FC71FD11D880F991F661F771F0694BE
:1025D000A1F70590079420F4490F561FC71FD81F75
:1025E000990F661F771F881F0694A9F7849110958D
:1025F000177041F0D695C79557954795F794E7948E
:102600001A95C1F7E2EFF0E06894159015913591B5
:102610006591959105907FE27395E118F10A430B5E
:10262000560BC90BD009C0F7E10CF11E431F561F12
:10263000C91FD01D7EF4703311F48A95E6CFE8945B
:10264000015030F0080F0AF40027021708F4202F79
:102650002395022F7A3328F079E37D932A95E9F7C1
:1026600010C07D932A9589F60694979567953795BE
:1026700017951794E118F10A430B560BC90BD009B3
:1026800098F023957E9173957A3308F070E37C93EC
:102690002013B8F77E9170617D9330F0839571E3DC
:1026A0007D9370E32A95E1F71124EF90FF900F914D
:1026B0001F91CF91DF91992787FD90950895FC0197
:1026C0000590615070400110D8F7809590958E0F5D
:1026D0009F1F0895FB01DC0101900D920020E1F79E
:1026E0000895FC016150704001900110D8F7809569
:1026F00090958E0F9F1F0895FB0151915523A9F0CE
:10270000BF01DC014D9145174111E1F759F4CD01AD
:102710000190002049F04D9140154111C9F3FB0192
:102720004111EFCF81E090E0019708950F931F933F
:10273000CF93DF93182F092FEB018B8181FD03C00D
:102740008FEF9FEF20C082FF10C04E815F812C81F0
:102750003D81421753077CF4E881F9819F012F5F87
:102760003F4F39832883108306C0E885F985812F80
:102770000995892B29F72E813F812F5F3F4F3F839A
:102780002E83812F902FDF91CF911F910F9108956C
:10279000A0E0B0E0EEECF3E10C941611FE013596EA
:1027A00061917191AF0180912603909127030E945E
:1027B000BF09E2E00C9432110F931F93CF93DF9384
:1027C000E0912603F0912703238121FF1BC0EC0138
:1027D00000E010E089916091260370912703DB01EE
:1027E0001896ED91FC911997882331F00995892B62
:1027F00089F30FEF1FEFEECF8AE00995892B11F4D3
:10280000C80102C08FEF9FEFDF91CF911F910F9111
:102810000895AEE0B0E0EFE0F4E10C9414110D89FE
:102820001E8986E08C831A8309838FEF9FE79E833E
:102830008D83AE01475E5F4F6F89788DCE01019623
:102840000E94BF09EF81F885E00FF11F10822E96DC
:10285000E4E00C943011AEE0B0E0E1E3F4E10C947C
:10286000161185E08C838B899C899A838983AE01BC
:10287000495E5F4F6D897E89CE0101960E943C16AC
:102880002E96E2E00C943211AEE0B0E0EAE4F4E11E
:102890000C9414118C0186E08C831A8309838FEFCA
:1028A0009FE79E838D83CE0101960E94BF09EF8131
:1028B000F885E00FF11F10822E96E4E00C943011A1
:1028C000FA01AA27283051F1203181F1E8946F9361
:1028D0006E7F6E5F7F4F8F4F9F4FAF4FB1E03ED007
:1028E000B4E03CD0670F781F891F9A1FA11D680FA5
:1028F000791F8A1F911DA11D6A0F711D811D911DD8
:10290000A11D20D009F468943F912AE0269F11244C
:102910003019305D3193DEF6CF010895462F4770B0
:10292000405D4193B3E00FD0C9F7F6CF462F4F700B
:10293000405D4A3318F0495D31FD4052419302D069
:10294000A9F7EACFB4E0A69597958795779567950F
:10295000BA95C9F700976105710508959B01AC010F
:102960000A2E06945795479537952795BA95C9F736
:10297000620F731F841F951FA01D089520FD09C0BD
:10298000FC0123FD05C022FF02C0738362835183D3
:102990004083089544FD10C046FD10C0DB01FC01DA
:1029A000AA0FBB1FEE1FFF1F1094D1F76A0F7B1FEA
:1029B0008E1F9F1F31E003C033E001C034E0660F7B
:1029C000771F881F991F3150D1F7620F711D811D2C
:1029D000911D08950F931F93CF93DF938C01C8012E
:1029E0000E948617EC0197FD08C00E947317892B7F
:1029F000B1F7B801CE010E94C417CE01DF91CF918B
:102A00001F910F9108958F929F92AF92CF92DF9274
:102A1000EF92FF920F931F93CF93DF93EC01A62EBB
:102A20004A01022F0E948617AC0155274B325105EF
:102A300021F04D32510551F40068AA9411F480E060
:102A400067C0CE010E94861797FDF9CF102F1D7F1A
:102A5000302F307301F58033F1F4FF24FA94FA0C2F
:102A600009F442C0CE010E94861797FD3DC0382F61
:102A70003F7D383551F41264AA94AA94A9F1CE018D
:102A80000E94861797FF07C02FC006FF02C0126082
:102A900001C01261AF2CC12CD12C760120ED280F82
:102AA000283080F014FF04C0BE010E94C41719C072
:102AB0002A3040F016FFF8CF2F7D3FEE320F363030
:102AC00098F72750412FC701B6010E94CA146B0125
:102AD0007C011260AA9459F0CE010E94861797FFDC
:102AE000DDCF11FD04C0ABCFC12CD12C760117FF77
:102AF00008C0F094E094D094C094C11CD11CE11C97
:102B0000F11C212FB701A601C4010E94BE1481E06F
:102B1000DF91CF911F910F91FF90EF90DF90CF90B9
:102B2000AF909F908F900895A1E2B0E0EAE9F5E1BF
:102B30000C940B115C017A018E010F5F1F4F68012D
:102B400080E2D8011D928A95E9F7F501738040E093
:102B500050E0812CB0E0912C81E090E0F90173FC11
:102B6000A59173FEA1918F017A2F9F01A11103C03E
:102B700080E090E07DC0AE3519F44115510559F162
:102B8000E92DF0E0E417F5073CF4AD3569F1AD321D
:102B900019F4BB2319F103C0B11101C08A2EE72F2C
:102BA000E695E695E69586010E0F111DF801A72F13
:102BB000A7708C0102C0000F111FAA95E2F7D8017F
:102BC000B081BA2BB083781559F0781510F47F5F77
:102BD000E6CF7150E4CF9924939403C0B1E001C0D3
:102BE000B0E04F5F5F4FBACFBB2319F08E81806298
:102BF0008E83911003C09924939415C0F601CE01E1
:102C00008196208120952193E817F907D1F7F3CF1A
:102C1000E114F10429F0D7018C93F70131967F017B
:102C2000615001F1912CC50169A30E94861769A129
:102C300097FD16C0282F269526952695F601E20FBA
:102C4000F11D208130E0AC014770552702C0359559
:102C500027954A95E2F720FDDBCFB5010E94C41706
:102C6000911086CFE114F10411F0D7011C92C80134
:102C7000A196EDE00C9427114F925F927F928F9274
:102C80009F92AF92BF92CF92DF92EF92FF920F93FB
:102C90001F93CF93DF931F92CDB7DEB78C012B012B
:102CA0007A01FC0117821682A12CF801D380F2016F
:102CB000D3FC8591D3FE8191382F2F01882309F40D
:102CC000FCC090E039830E9473173981892B21F071
:102CD000C8010E94EA14E9CF353241F4F201D3FC75
:102CE0003591D3FE31912F01353269F4C801398312
:102CF0000E948617398197FDDEC03817B1F2B801FE
:102D00000E94C417DAC03A3241F4D3FC3591D3FEA5
:102D100031912F01BB24B39401C0B12C712C20ED53
:102D2000230F2A3090F4FB2DF260BF2E672D70E048
:102D300080E090E040E20E94CA14762EF201D3FCBB
:102D40003591D3FE31912F01EACFB1FE03C071104E
:102D500003C0B3C077247A94383619F03C3661F05A
:102D600014C0F201D3FC3591D3FE31912F013836D6
:102D700061F4FB2DF860BF2E8B2D8460B82EF2011C
:102D8000D3FC3591D3FE31912F01332309F495C043
:102D9000632F70E08CEE91E039830E947B173981BC
:102DA000892B09F48AC0B0FC07C0F701C080D1802C
:102DB000C70102967C0102C0C12CD12C3E3651F4D1
:102DC000F8014681578160E070E02B2DC6010E941A
:102DD000BE146BCF3336A1F4B1FC02C077247394D8
:102DE000C8010E94861797FD66C0C114D10429F05E
:102DF000F6018083C60101966C017A9489F757C069
:102E00003B3559F49201A601672DC8010E94941523
:102E10002C01009709F04BC045C0C80139830E94BE
:102E2000EA14398197FD47C03F3669F128F43436FA
:102E300031F1393679F12BC0333769F03537F9F094
:102E400026C0C114D10429F0F6018082C601019682
:102E50006C017A9471F0C8010E9486174C0197FDAD
:102E600008C00E947317892B61F3B801C4010E9446
:102E7000C417C114D104D9F0F601108218C0FB2D7B
:102E8000F062BF2E07C08B2D8061B82E03C09B2D32
:102E90009064B92E2B2DA601672DC8010E94031541
:102EA000811105C0F8018381807329F406C0B0FC4C
:102EB000FCCEA394FACEAA2019F08A2D90E002C08D
:102EC0008FEF9FEF0F90DF91CF911F910F91FF90A8
:102ED000EF90DF90CF90BF90AF909F908F907F90BA
:102EE0005F904F900895911168C0803219F0895019
:102EF0008550D0F70895FC010590061621F00020BA
:102F0000D9F7C00108953197CF010895CF93DF938A
:102F1000EC012B8120FF33C026FF0AC02F7B2B83BF
:102F20008E819F8101969F838E838A8190E029C044
:102F300022FF0FC0E881F9818081992787FD909554
:102F4000009719F420622B831AC03196F983E88325
:102F50000EC0EA85FB85099597FF09C02B81019674
:102F600011F480E101C080E2822B8B8308C02E81A6
:102F70003F812F5F3F4F3F832E83992702C08FEF02
:102F80009FEFDF91CF910895FB01238120FF12C0B5
:102F900026FD10C08F3F3FEF930761F082832F7DA6
:102FA000206423832681378121503109378326838A
:102FB000992708958FEF9FEF0895992788270895FF
:042FC000F894FFCFB3
:102FC40000000002000000001A09000000000000D8
:102FD4002A032000ABAAADACAFAEB1B0B3B2B5B466
:102FE400B7B6B9B8BBBABDBCBFBE002020202020F4
:102FF4002020202020202020200041540D004F4B71
:103004000041542B43574D4F44453D25640D0A0060
:1030140041542B4349504D4F44453D25640D0A000E
:1030240041542B4349504D55583D25640D0A0041E8
:10303400542B43574A41503D222573222C22257399
:10304400220D0A005B4572726F725D0954686572E5
:103054006520697320616E206572726F72206F63E0
:103064006375726564207768696C65207472616E3B
:10307400736D697373696F6E2E20284E41434B291B
:1030840000252E32662025634320253032643A25FC
:1030940030326400253032642F253032642F2530DD
:1030A400326400496E69742053797374656D210A22
:1030B400005B496E69745D00576966693A2025733F
:1030C4000A005B4F6B5D00576966693A20257300FF
:1030D4005B4661696C5D005B427573795D005365A5
:1030E4006E736F723A2025730054696D65723A20CD
:1030F40025730053797374656D20737461727465FC
:10310400642100657263697961732E62697A00547F
:1031140043500041542B43495053544152543D228F
:103124002573222C222573222C25640D0A00415478
:103134002B43495053454E443D25640D0A006874A1
:1031440074703A2F2F657263697961732E62697A9C
:103154002F74696D652E706870004745542025737F
:1031640020485454502F312E300D0A0D0A00434C80
:103174004F53454400616538353034307071370041
:1031840045524349594153003C3C003C3C25643A78
:1031940025643A25642625642F25642F25643E3E44
:0231A400000029
:00000001FF
